:020000041000EA
:10000000002008205B0100101B0100101D010010E2
:100010001101001011010010110100101101001058
:100020001901001019010010190100101F01001022
:10003000110100101901001021010010230100100E
:100040001101001011010010110100101101001028
:100050001101001011010010110100101101001018
:100060001101001011010010110100101101001008
:1000700011010010110100101101001011010010F8
:1000800011010010110100101101001011010010E8
:1000900011010010110100101101001011010010D8
:1000A00011010010110100101101001011010010C8
:1000B00011010010110100101101001011010010B8
:1000C00011010010110100101101001011010010A8
:1000D0001101001011010010110100101101001098
:1000E0001101001011010010110100101101001088
:1000F0001101001011010010110100101101001078
:100100001101001011010010110100101101001067
:10011000EFF30580103800BE00BE00BE00BE00BE7A
:1001200000BE00BEF2EB887194630010B46300104F
:100130009C01001090A31AE7D3DEFFFF42012110BB
:10014000FF010000E4740000793512AB00201E4965
:10015000086006C881F3088810474FF050400068D7
:1001600008B10020F3E70DA40ECC002902D000F066
:1001700012F8F9E71549164A002000E001C1914242
:10018000FCD114498847144988471449884700BE60
:10019000FDE701C901C29A42FBD37047B463001066
:1001A00010010020781300201C76001000000820A9
:1001B000000008201C760010001008200010082005
:1001C000000000007047000008ED00E078130020F8
:1001D000D01C0020293900108502001021390010A0
:1001E0000FB410B50020AAB004F0A8FF20B92AB0BF
:1001F000BDE8104004B070472DABA0212C9A02A896
:10020000019303F05FFB041EF1DD002005F066F8AA
:10021000A02CA8BFA024A04228BF20460028E6D0DA
:10022000024602A9002005F037F8002004F0EEFF96
:10023000DDE700BF0FB410B50020AAB004F07EFFC8
:1002400020B92AB0BDE8104004B070472DABA02102
:100250000B4A02A8019303F035FB0446002005F089
:100260003DF8A04228BF20460028EAD0024602A955
:10027000002005F011F8002004F0C8FFE1E700BFFE
:10028000805E00102DE9F04FBBB003F049FC19204F
:1002900000F0FCFD19234FF0010242EC4430002134
:1002A0006B4801F025FC6B48FFF79AFF00F05EFBFE
:1002B00000235A264FF080351A46CDE91433CDE994
:1002C000163321A819A903EBC30401F8033CE83451
:1002D00001336C44042B01F8046C026004F8862C92
:1002E00004F8852C426002720D600A7100F1090069
:1002F00001F10901E7D101F0F1FB4FF0000E0446D6
:10030000F0460D46F146F3467646534F0DF1670A27
:10031000BB6ACDE906EECDE90EEECDE90AEE099312
:10032000CDF814E0CDF830E0CDF80CE0CDF834E0B5
:10033000CDF820E0BB6AB8F1000F09D0099A9B1AEA
:100340000B9A9A4238BF1A460B920A9A1A440A929A
:10035000BB6ABA6A00214FF0FF300993049204F09F
:100360002BF9BB6A049A9B1A039A1A44039201F070
:10037000B5FB002900F0298100234FF47A7205F0C3
:1003800053FD0346BBF1000F05D00D9A9A1A152AAA
:1003900028BF4FF0000B0020049304F0E5FE049BFF
:1003A000002840F05281059A12B19A1AC82A06D93B
:1003B0005A214FF08032CDE918128DF86860089A02
:1003C00012B19A1AC82A0DD94FF4AD72ADF869204E
:1003D0004FF080328DF86B608DF86C608DF8716035
:1003E000CDF86D20079A12B19A1AC82A0BD940F29B
:1003F0005A22ADF872204FF08032ADF874608DF85B
:100400007A60CDF87620069A12B19B1AC82B0DD9C6
:1004100040F25A33ADF87B304FF080338DF87D6079
:100420008DF87E608DF88360CDF87F307B6A0B4954
:10043000D1E900129A4200F29780B86A884202D24B
:100440009A4200F0918000230DF15F022FE000BF7F
:1004500020A10700A85E001000000B40C815002076
:100460005B00D8B25BB2002B2EDB4000C1B240B2C1
:10047000002830DB4900CBB249B2002932DB5B00F7
:10048000D9B25BB2002B34DB4900CBB249B20029B0
:1004900036DB5B00D9B25BB2002B38DB4900CBB254
:1004A00049B200293ADB5B005245DBB23CD012F87E
:1004B000011F4B4059B20029D2DA480080F00700F2
:1004C00043B2002BC0B2D0DA5B0083F0070358B20E
:1004D0000028D9B2CEDA400080F0070041B20029EE
:1004E000C3B2CCDA490081F007014BB2002BC9B28C
:1004F000CADA5B0083F0070359B20029DBB2C8DA1D
:10050000490081F007014BB2002BC9B2C6DA5B008B
:1005100083F0070359B20029DBB2C4DA490081F045
:1005200007015245CBB2C2D18DF86830BB6A21AA0F
:10053000002018A9049300F095FABA6A049BD21A15
:100540000C9B13440C930346002855D06D4ABDF80C
:10055000881012888A4200F093816A4A11806A4AA0
:1005600016600E9300230F9308F10108B8F57A7F07
:1005700009F1010950D0654B654A03FB09F3B2EB61
:10058000730F27D24FF0FF326FF0004314F5FA7467
:1005900045F10005A24273EB05013CBF1D46144620
:1005A00001F09CFA844265EB0101002903DA01F0B5
:1005B00095FA04460D461923C9F3002242EC403057
:1005C0002046294601F0C6FAB4E6524AA2FB0023AF
:1005D0009B09D7E60E9ABDF88830002A7ED0019399
:1005E0009DF8653000210093BDF862209DF86430CD
:1005F0004948FFF7F5FDC5E70F9A434901321D2A27
:100600000F92086000F26A8108F10108B8F57A7F5C
:100610000E9009F10109AED10B9B3E4800930C9B53
:10062000A0FB0323039A9B09A0FB02120A999209DB
:10063000A0FB010139488909FFF7FCFD002398461A
:100640000B930A930C93039395E7402802462AA93B
:1006500028BF4022002004F093FD049B00283FF4B3
:10066000A2AE2AAA11461044049411F8012BBBF142
:10067000000F18D0DC460CF1E8040DEB040EBCF1C1
:10068000080F0EF8A42C0CF1010B34D08842ECD1E9
:10069000049C149A0D930592179A0692169A079243
:1006A000159A08927FE65A2A06D0884200F0E48024
:1006B00011F8012B5A2AF8D181428DF8442000F01C
:1006C00032810A4612F801CB82428DF845C000F013
:1006D0002E814A784FF0020C0231CCE700939DF84E
:1006E0008B30114601939DF884209DF885300C488D
:1006F000FFF776FD46E700229DF845C0049C0DF10A
:10070000430E47E0701C002060180020EFEEEEEE74
:1007100088888808D34D6210585F0010805E0010F2
:10072000945F001052005FFA82FB52B2002A44DB51
:100730004FEA4B025FFA82FB52B2002A46DB4FEAD5
:100740004B025FFA82FB52B2002A48DB4FEA4B02AF
:100750005FFA82FB52B2002A4ADB4FEA4B025FFA91
:1007600082FB52B2002A4CDB4FEA4B025FFA82FB5B
:1007700052B2002A4EDB4FEA4B025FFA82FB52B2C2
:10078000002A51DB4FEA4B0B5FFA8BF20DF14B0B5A
:10079000DE4551D01EF801BF82EA0B024FFA82FB00
:1007A000BBF1000FBEDA4FEA4B0B8BF0070B4FFA91
:1007B0008BF2002A5FFA8BFBBADA520082F0070B49
:1007C0004FFA8BF2002A5FFA8BFBB8DA520082F004
:1007D000070B4FFA8BF2002A5FFA8BFBB6DA520056
:1007E00082F0070B4FFA8BF2002A5FFA8BFBB4DA28
:1007F000520082F0070B4FFA8BF2002A5FFA8BFB54
:10080000B2DA520082F0070B4FFA8BF2002A5FFA3D
:100810008BFBB0DA4FEA420B8BF0070B4FFA8BF2EF
:10082000002A5FFA8BFBADDA52000DF14B0B82F020
:100830000702DE45D2B2ADD19DF84CE00494964556
:100840007FF433AF0CF0030E0EEBCE023AAC04EBA8
:100850008E0E02F1E8044EF8983C0DEB040E18AC35
:10086000BDF846B02244129C88420EF887CC2EF880
:1008700086BC54607FF41CAF4FF0000B049C08E76B
:100880002D4801680131132901607FF66AAE00210D
:100890002A480493FFF7A4FC14224FF0010141EC15
:1008A000402000F063F801F019F9254A4FF0FF3CB1
:1008B000801841F100026FF00041844571EB020E97
:1008C0003CBF0A4660461F49049BC1E900021A4A20
:1008D0001D4916604FF6FF720A8042E601460490F9
:1008E0001A48FFF77DFC14224FF0010141EC402033
:1008F00000F03CF801F0F2F8154A4FF0FF3C801888
:1009000041F100026FF00041844571EB020E3CBFE3
:100910000A4660460B49049BC1E900024FF6FF728C
:1009200009490A801DE64FF0010B049CB1E64FF027
:10093000020B049CADE600BF60180020D85E0010DA
:10094000A0860100C8150020701C0020145F001054
:10095000F0490200034B044AD2E90001C3E9000157
:10096000704700BFC8150020406100104FF480237D
:10097000F0B5324A324987B00B60136001F0AEF82F
:100980004FF0FF326FF0004310F5FA6041F10001C3
:10099000824273EB01043CBF19461046294C2A4A97
:1009A000A3685B0305D4536A9942F9D8956A8542D6
:1009B00041D30227254C2649204605F067F9254BEF
:1009C00062685F602368244E83F0870303F0CF03DF
:1009D00033604FF00106214D3A406A60012110203A
:1009E00000F022FA0121122000F01EFA1C4C012115
:1009F000132000F019FA00220121102000F032FA31
:100A00000FCCD4F800C001AC0FC406AF01ADC4F8E0
:100A100000C055F8044B204600F038FA46EC44403C
:100A200046EC404000220121204600F01BFABD4266
:100A3000EFD107B0F0BD9942BBD1B1E70030024021
:100A4000002002400000024000000B40000008406F
:100A500000093D0000300840001008400020084018
:100A6000286100102DE9F047032884B004D9002440
:100A7000204604B0BDE8F08717460646884601F0D8
:100A80002DF84FF0FF326FF00043C83041F1000104
:100A9000824273EB01043CBF194610469F4CA04AAA
:100AA000E3685D0707D5A368536A9942F8D8956A49
:100AB0008542C0F00381002E40F00681142346ECED
:100AC00040301E20002101F013F801F007F84FF02C
:100AD000FF326FF00043092410F5FA6941F1000C70
:100AE0004A4573EB0C0138BF9C46BE46254638BFCD
:100AF00091468A488A4A002D40F0EE80002C00F092
:100B00000281C3685B0705D573468168013C03F821
:100B1000011B9E46536A9C45EDD8916A494501D216
:100B20009C45E8D000241E20002100F0E1FF002EAB
:100B300040F0E18014234FF0010242EC40303220BB
:100B4000002100F0D5FF002C91D03A78A52A00F0C2
:100B5000DC8000256B46AE4638687968520003C3D6
:100B6000397A9DF8048019709DF801309DF806C00F
:100B700042EAD3125900D3B29DF805204FEA480A41
:100B80004AEAD21A520042EADC126AF3070E9DF8D2
:100B9000029062F30F2E9DF807209DF803004FEAA4
:100BA0004C0C4CEAD21C41EAD9116CF3174E63F39A
:100BB00007054FEAD01CC9B261F30F2552004CEA79
:100BC000490C4000D2B26CF3174540EAD81062F3EA
:100BD0001F6E60F31F65A52BCDF804E000957FF430
:100BE00046AF8E427FF443AF00230DF1FF310DF18C
:100BF000060027E05B00DEB25BB2002B2FDB760045
:100C0000F5B276B2002E31DB6D00EBB26DB2002D85
:100C100033DB5B00DDB25BB2002B35DB6D00EBB28A
:100C20006DB2002D37DB5B00DDB25BB2002B39DB30
:100C30006D00EBB26DB2002D3BDB5B00DBB281429D
:100C400000F0E78011F8015F6B405DB2002DD1DA52
:100C50006E0086F0070673B2002BF6B2CFDA5B00A7
:100C600083F007035EB2002EDDB2CDDA760086F0A7
:100C7000070675B2002DF3B2CBDA6D0085F00705DB
:100C80006BB2002BEDB2C9DA5B0083F007035DB2F3
:100C9000002DDBB2C7DA6D0085F007056BB2002BC3
:100CA000EDB2C5DA5B0083F007035DB2002DDBB265
:100CB000C3DA6D0085F00705EBB2C0E799423FF457
:100CC000EFAE002E3FF4FAAE164B4FF0000253F891
:100CD000263042EC4030F4E6C368990707D505F1A9
:100CE0000803A34203D918F8013B013D8360002C9F
:100CF0003FF410AF05E70B4B4FF0010253F82630DD
:100D000042EC40301BE701240DE77B78B3427FF4CF
:100D100020AF0023791EB81D32E000BF000008405C
:100D200000000B40186100105B005FFA83FC5BB2AF
:100D3000002B35DB4FEA4C0C5FFA8CF54FFA8CFC3C
:100D4000BCF1000F35DB6D00EBB26DB2002D3ADB6C
:100D50005B00DDB25BB2002B3CDB6D00EBB26DB231
:100D6000002D3EDB5B00DDB25BB2002B40DB6D0093
:100D7000EBB26DB2002D42DB5B00DBB2884243D0A8
:100D800011F8015F6B405DB2002DCDDA4FEA450CE2
:100D90008CF0070C4FFA8CF3002B5FFA8CFCC9DA4D
:100DA0005B0083F007034FFA83FCBCF1000FDDB258
:100DB000C9DA4FEA4C0C8CF0070C4FFA8CF5002D79
:100DC0005FFA8CF3C4DA6D0085F007056BB2002B77
:100DD000EDB2C2DA5B0083F007035DB2002DDBB237
:100DE000C0DA6D0085F007056BB2002BEDB2BEDAFC
:100DF0005B0083F007035DB2002DDBB2BCDA6D004F
:100E000085F00705EBB2B9E7F97999427FF4A1AE15
:100E10002EE693427FF42BAE6B4603CB1B783860F3
:100E200079603B7224E600BF10B44FF480740C4B21
:100E300053F8202003EB8003C00082F0400200F151
:100E4000804003F5805C02F0C00200F5203003F51D
:100E50004053CCF8002041601C605DF8044B7047A3
:100E60000480034010B4084CC90041EA820154F8E0
:100E7000202004EB8003514003F5805301F00C0166
:100E80005DF8044B196070470480034030B44FF0A4
:100E9000000343EC440043EC400005254FF480740C
:100EA0000B4BC20053F8201003EB800081F040018F
:100EB00002F1804303F5203301F0C00200F58051B8
:100EC00000F540500A605D60046030BC704700BFB0
:100ED000048003400FB400B583B0049C074802F0BF
:100EE00063FE3CB105A92046019102F0FDFC0448D7
:100EF00002F05AFE012002F00FFD00BFC45F001097
:100F0000D45E001070B58646EFF3108572B6124CB1
:100F1000D4E8CF6F0120002EFAD1C4E8460F002E8E
:100F2000F6D1BFF35F8F4FF0010CC80801F0070343
:100F30000CFA03F31EF800C01CEA030608D14CEAC1
:100F4000030C0EF800C0C4E88F6F85F3108870BDE5
:100F50001046FFF7BFFF00BFB7160020F8B5EFF34C
:100F6000108572B6234CD4E8CF7F0126002FFAD12A
:100F7000C4E8476F002FF6D1BFF35F8F9A4227D89E
:100F80000126D70810F807E002F0070C06FA0CFC5F
:100F90001EEA0C0F00EBD2070DD125E04FEAD20E6E
:100FA00010F80EE002F0070C06FA0CFC1EEA0C0F1B
:100FB00000EBD20718D001329342EFD24FF0FF304E
:100FC0000023C4E88F3F85F31088984207DBF8BD03
:100FD0000023C4E88F3F85F310884FF0FF300029CD
:100FE000F5D00698FFF776FF4EEA0C0E104687F80C
:100FF00000E0E5E7B7160020044A1078431CDBB296
:10100000182B28BF10231370704700BFB0120020A8
:1010100010B5054C82B001461F23182200940348E6
:10102000FFF79CFF02B010BDD45F0010FC1700203A
:101030004FF0E022936843F000539360704700BF85
:101040000021044B03F12002C3E88F1F01339342B8
:10105000FAD17047AC1600204FF0E0234FF08032F9
:10106000C3F80024C3F80424C3F80824C3F80C24EC
:10107000C3F81024C3F81424C3F81824C3F81C249C
:10108000C3F82024C3F82424C3F82824C3F82C244C
:10109000C3F8302462B67047012300F01F0293406A
:1010A000400941B1800000F1604000F56140C0F8A6
:1010B000803103607047024A203042F82030704788
:1010C00000E100E010B5EFF3108C72B6114BD3E8DD
:1010D000CF4F0122002CFAD1C3E8442F002CF6D1C7
:1010E000BFF35F8F0C4A103092680C4C52F82020EE
:1010F000A24201D091420BD1074A926842F82010D7
:10110000BFF35F8F0022C3E88F2F8CF3108810BDD0
:1011100000F0AEFEB516002000ED00E01101001059
:101120002DE9F04F0B4683B0EFF3108A72B6DFF86B
:10113000AC91D9E8CF4F0121002CFAD1C9E8441F66
:10114000002CF6D1BFF35F8F5D4991F90080B8F1B3
:10115000000FC0F2B2805B4C08EB480704EB870538
:10116000AE7910300E7058494FEA480689680096EB
:1011700051F82010BF000E1B472E34D821F0010E6D
:101180009EF80760964209D871E00CEB4C0604EB20
:10119000860696F807B093454ED9B6469EF906C026
:1011A000BCF1000FF1DA4BF601560EF1040B043DD1
:1011B000A5EB0B05C5F34A056FEAC545009F6FEA2D
:1011C000D5454744BB468EF80680DFF80C8104EB1A
:1011D0008707AEF8045044F82B80BE8087F806C01D
:1011E000FA71BB601AE0394EB14266D1AB60384B40
:1011F000EA71BA1C2244043B9B1AC3F34A036FEA08
:10120000C3434FF421426FEAD343E2536B80FF2282
:101210004BF60153AA71AB8045F001012A4B9B6844
:1012200043F82010BFF35F8F0023C9E88F3F8AF394
:10123000108803B0BDE8F08FF3463BF8046F7605E5
:101240000FD4761502360BEB460601966FF00706B3
:10125000F61B019F361B3E44C6F34A0646F4604621
:10126000A5E706F5FF1606F5FF561F36E9E7AB6062
:101270006FF00703EA714FF42142DB1B1B1B734421
:10128000E253C3F34A02124B124E02372744043B87
:101290003243DB1BAA80C3F34A030F4A33436B80FC
:1012A0004AF6AA2173461B1B5B415943090DA971DC
:1012B000CEF8002045F00101B0E700F0D9FD00BFF5
:1012C000CC1C0020B412002000ED00E01101001041
:1012D000FC12002000E0FFFF01488047B516002007
:1012E000F0B5EFF30585EDB2EFF3108C72B62C4933
:1012F000D1E8CF2F0123002AFAD1C1E8423F002ACA
:10130000F6D1BFF35F8F274E40F0010EB4684AF666
:10131000AA2354F82570244A0446A41A644163435E
:101320001B0D77455BB223D092F906409C4224D036
:1013300092F912409C422BD092F91E409C4229D037
:1013400092F92A409C4227D092F936409C4225D0FF
:1013500092F942409C4208BF05240FD0134A002452
:10136000157813708571C1E88F4F8CF31088F0BD2C
:10137000B2680F4C42F82540F0E7002404EB440427
:1013800002EB8402FF2494714BF601549480E5E74C
:101390000124F3E70224F1E70324EFE70424EDE757
:1013A000B516002000ED00E0B4120020CC1C002097
:1013B00011010010014B0B4403607047AC16002074
:1013C00070B5104C104DAC420ED2FF26236863B1AD
:1013D000FFF712FE01462046FFF7ECFFA680BFF3A1
:1013E0005F8F0834AC42F1D370BDFFF705FE0146B4
:1013F0002046FFF7DFFF2671BFF35F8F0834AC4252
:10140000E4D370BD701300207813002010B504469B
:10141000FFF7F2FD01462046FFF7CCFFFF232371C3
:10142000BFF35F8F10BD00BF10B504460120FFF76A
:10143000EFFD034B03442360BFF35F8F10BD00BF7C
:10144000AC16002010490B68EFF3108072B6D3E899
:10145000CFCF0122BCF1000FF9D1C3E84C2FBCF172
:10146000000FF4D1BFF35F8F084A4FF0000C1378E0
:1014700009680133DBB21370C1E88FCF80F31088A5
:1014800040BF002000217047AC1C0020CE1C002073
:101490002DE9F04F2DED028B85B0EFF30583DBB224
:1014A000103B9A0818BF01224FF0010103F003001E
:1014B00018BFAF4DAF4B08BFAF4D00EB820253F8E2
:1014C000226001FA00FB05F541539FEDA78B0190C7
:1014D000C3F804B02EE0B388180440F19280B379C9
:1014E000002B40F0DC80B6F908100029C0F21D8105
:1014F000736901EB410103EBC103D3E90247B7F183
:10150000FF3F08BFB4F1FF3F0DD0019B05EB830106
:10151000AB6A0A69D21AE31A934203D32B6A13EA1D
:101520000B0F00D10C61284600F0D0FAA042B9415F
:10153000C0F2FB80B6F90830C5F83CB0002B009330
:10154000C9DBD6F8149003EB430A284609EBCA0717
:10155000D7E9024800F0BAFAA04271EB0801BADB01
:10156000B8F1000FC0F2C380D7E90431834A934237
:1015700000F0ED807A88B6F9080092B242EA0040A5
:10158000984702460B4652EA030100F0B080002B58
:1015900080F2D180B4EB020E68EB030839F93A30DF
:1015A000C7E902E8002B96DB716903EB430201EB0C
:1015B000C202D2E90270BE4578EB000C4FEA43024A
:1015C00089DBB4462CF8083F0BE031F93230A446F1
:1015D000002B0DDB03EB430001EBC0005A00D0E908
:1015E0000270BE451A4478EB000001EBC204ECDA4D
:1015F00029F83A30009BACF80030B38818043FF566
:101600006EAF3369EFF3108272B6D3E8CF0F0121CA
:101610000028FAD1C3E8401F0028F6D1BFF35F8F3E
:101620004FF6FF74B0880023316900B2B480C1E87E
:101630008F3F82F310889842FFF651AF0746A946C4
:10164000746906F1080807EB470E04EBCE03D3E9F3
:101650000250B6F90830C446002B13DBB24600979F
:1016600004E034F936309446002B09DB03EB4306E3
:1016700004EBC602D2E90271BD4270EB0101F0DA5F
:101680005646009FACF8007034F93E7024F83E30A6
:10169000002FD8DAB3794D46002B3FF424AF002356
:1016A000B371B6F9083006F10808591C3DD0194647
:1016B000776903E080465A1C3FF417AF03EB4302FF
:1016C00007EBC200B0F802C01C461CF4004F9E4657
:1016D00037F93230EED08C4280ED028B05D0A8F87D
:1016E0000030318927F8321034817146E3E739F848
:1016F0003A3033813369EFF3108272B6D3E8CF0FFB
:1017000001210028FAD1C3E8401F0028F6D1BFF319
:101710005F8F7388316929F83A30009B738000230A
:10172000C1E88F3F82F31088D5E640BF05B0BDEC1D
:10173000028BBDE8F08F2846CDE9022300F0C6F900
:10174000029A039B10EB020E43EB010826E70846C2
:101750000B69029198470028C9D00299D1E900236A
:1017600011E700BFAFF30080FFFFFFFFFFFFFFFFA8
:1017700000800B40841C002000000B4091140010DE
:101780002DE9F84F364C25692DB1BDE8F84F0A21F7
:101790003448FFF70FBEDFF8E4800321404600F035
:1017A00083F90326C4F80C80FFF726FC4FF0504C59
:1017B0002D4B267003442361DCF800300F21637049
:1017C000636961801D834FF00405A3F878504FF0E2
:1017D0000505A3F890504FF00605A3F8A8504FF068
:1017E00007050E214FF6FF7208274FF00A0EA3F8E7
:1017F000C0504FF001094FF00C0C4FF0020B4FF0AE
:10180000090A0D204FF00B05A3F868111749A280B3
:10181000A3F808E1A160A3F848B0A3F8F0A0A3F8EA
:101820002051A3F838C1A3F85001A3F83090A3F8D1
:101830006060A3F8D8701A800D4B3046C8F820704D
:101840000C49DC60FFF73EFC49463046FFF724FCBC
:10185000094B0A211F640348BDE8F84FFFF7AABDF2
:1018600020130020AC1C0020AC160020FFFF10004D
:10187000841C00209114001000200B4000000B403D
:1018800000487047201300200146F0B50069EFF3CF
:10189000108772B6D0E8CF5F0124002DFAD1C0E8DE
:1018A000454F002DF6D1BFF35F8FB1F902E04C69CF
:1018B0000EEB4E0CBEF1000F4FEACC0504EBCC0C46
:1018C0003DDB605B002648800869C0E88F6F87F3C6
:1018D0001088BCF80200CCE902230130C0F30E00EE
:1018E000012838BF0120059BACF80200CCF810306D
:1018F000069B40EA0E40CCF814300B69EFF31082DF
:1019000072B6D3E8CFCF0127BCF1000FF9D1C3E8FD
:101910004C7FBCF1000FF4D1BFF35F8F8B88635312
:10192000A1F804E00B69C3E88F6F82F310880122ED
:10193000CB68097803F501538A405A60F0BD002353
:101940000A69C2E88F3F87F310884FF0FF30F0BD7F
:1019500003464089B0EB214F37DD58690A1402EB8A
:10196000420210B500EBC2001C69EFF3108C72B696
:10197000D4E8CFEF0122BEF1000FF9D1C4E84E2F19
:10198000BEF1000FF4D1BFF35F8F428889B292B2EB
:101990008A4207D000221B69C3E88F2F8CF310887E
:1019A000002010BD42F4004242800121002218694B
:1019B0009971C0E88F2F8CF310881C78DA6808467C
:1019C00002F50153A140596010BD0020704700BFCF
:1019D000407870472DE9F04705460C4682B0EFF39A
:1019E0000587FFB2002F38D12B4ED6E900238B425A
:1019F00008BF824239D0DFF8AC80D8F80CA098F844
:101A00000090504600F062F809F104095AF82930B4
:101A10001B1A281A64EB0101984271F1000124DAC3
:101A200000F05CF8854264EB0101002915DB1B4BDB
:101A3000404600932A4623460197FFF725FF011EE3
:101A40000BDD174BC6E900545A6AA24221D39B6AA8
:101A5000AB421CD31348FFF77BFF114B586AA042DF
:101A600008D2002002B0BDE8F08720BF0C4B586AB6
:101A7000A042F6D39B6AAB4203D3012002B0BDE87B
:101A8000F087001B18BF012002B0BDE8F087A2421A
:101A9000E0D120BFDEE700BF18130020451400107E
:101AA00000000B402013002010B4054B054C064AE3
:101AB000A04214BF1846581C5DF8044BFFF722BA29
:101AC0000018002000800B40F05F00100346416AC0
:101AD0000A46986A596A8A42FAD17047034B596A92
:101AE0000A46986A596A9142FAD1704700000B4041
:101AF00010B4174A536A9C46946A536A6345FAD1F4
:101B0000001959414FF0000228BF01220346CAB113
:101B10000F4B596A4B1C08BF0B4608D04FF0FF31E2
:101B20000B460B48426A8A42FCD38A4207D1084AD4
:101B300002E0506A884202D1906A9842F9D35DF877
:101B4000044B7047024A526A9142EAD8EDE700BF5F
:101B500000000B40074A536A9942FCD8994207D1CA
:101B6000044B02E05A6A914202D19A6A8242F9D346
:101B7000704700BF00000B4000EB400C4FEA8C0C9C
:101B80000CF1804C0CF5803CF0B51646DCF80420D6
:101B9000051FB2F5803F38BF4FF48032EDB238BF39
:101BA000CCF80420012D2AD94FF40067254C0CF500
:101BB0004052176054F82020B2B9DCF80020012D03
:101BC00082EA461202F0E0020CF5805632602AD911
:101BD0004FF4006144F820304FF480330CF500528C
:101BE0001160CCF80430F0BD6769B7FBF2FE0EF16E
:101BF000010E0EEB4E0EBEF1030EFCD2DDE7012905
:101C0000D2D103240CF540521460DCF80820D2072E
:101C1000FBD5DCF800200B4C82EA461202F0E00211
:101C20000CF5805632600122DCF800504D4005F082
:101C30000305356002FA01F1DCF808200A42FBD006
:101C4000C6E700BF04180020014B53F8200070477E
:101C50000418002070B4039D04682D0345EA034571
:101C60001B4B002CB3FBF1F3B2FBF3F61FDB194A5D
:101C7000194B904214BF4FF480424FF40042174C6E
:101C80001A6003F580531A60A36832EA0303FBD19C
:101C9000212200F540530433016086601A60026817
:101CA000002AFCDA0822C5601A6070BC704703681D
:101CB00003F03F038B42DAD18368C3F30B03B342D3
:101CC000D5D1C36803F4EE23AB42D0D1EDE700BF1A
:101CD000001BB700008005400020024000000240C9
:101CE00030B44FF080441C4B1C60E0B11B4CA3F59A
:101CF0004053DC611A4C40F0010044401C625962C0
:101D000098624FF080454FF0E061134B1548164C38
:101D10001D60846019604AB930BC4FF00042A3F5E1
:101D200080531A607047114BD861EAE74FF47A7319
:101D300003FB02F2B2F1807F2ABF6FF07F431346AC
:101D40001A464FF080410A4C08482360094B426014
:101D500030BC1960704700BF00B00D40D3C007B061
:101D60002D3FF84F00A00140F3FFFF0100800D4020
:101D70007C1C002000A00D40012300EB40008000EF
:101D800000F1804000F5841041600360704700BF9F
:101D9000002370B5DB8A04460D461646002242E851
:101DA00000F2520254BF1021042144F252209847FD
:101DB000864633462A462046F446BDE870400A214E
:101DC000604700BF0023DB8A002242E800F2520293
:101DD00001D4102118470421184700BF08B5134645
:101DE000021E02DB5BB141F030018B0603D50023FC
:101DF000DB7C022B06D04FF48170FFF7C9FF41F066
:101E00002001F2E74FF49170FFF7C2FF034AD2F8C6
:101E10002838002BFBD0BFF35F8F704700000E40C7
:101E20000021044B044ABFF35F8F43F8041B934225
:101E3000F9D170470C080E402C080E4010B44FF436
:101E40008D704FF42A64064A064B07491460D0602F
:101E500019605368002BFCDA5DF8044B704700BF33
:101E60000080044000A0044000B0FA00704700BFAA
:101E700008B50148FFF72EF81460001038B5054C7E
:101E8000054DAC4204D254F8043B9847AC42FAD317
:101E900038BD00BF385E0010785E001010B40748EF
:101EA000074C084B084A094904601A608B6832EAFB
:101EB0000303FBD15DF8044B704700BF00200240D4
:101EC0007F3BEFEF00300240F6FFF30300000240DB
:101ED000044BDB6CB3F5004F03D14FF48022024B6F
:101EE000DA64704700001150002011504FF0E022DA
:101EF000044BD2F8881D0B43C2F8883D10EE300425
:101F0000704700BF030330006FF06041044B054A87
:101F100019609368DB4333F06043FAD1704700BF28
:101F2000003002400000024010B545F25320FFF798
:101F300049FFBDE8104003460420184710B545F29C
:101F40005320FFF73FFFBDE810400346012018472C
:101F5000FFF776B838B51349134C144D641AA4082A
:101F6000442C224628BF44222846920003F040FF1A
:101F7000432C14D80E4AC4F144000ED005EB840360
:101F8000410803EBC101C3E9002208339942FAD1A9
:101F9000C30704D520F00100044445F82420054B74
:101FA0009D6038BD000000101001001000000020EE
:101FB0001101001000ED00E0002370B52B4C82B041
:101FC000C4F88430FFF73AFF0122294BDA63636CCF
:101FD000012BFCD10321264A244B11639C6B012C5D
:101FE000FCD10226052521460523224A22480096D7
:101FF000FFF730FE21462B46204A21480095FFF787
:1020000029FE0022042031461E4BFFF7B5FD214674
:10201000284600221C4BFFF7AFFD00220820114686
:102020001A4BFFF7A9FD002209201146174BFFF7B5
:10203000A3FD002206201146134BFFF79DFD002251
:10204000114B07201146FFF797FD0420FFF7FCFD19
:1020500000240F4BA3FB0035AD0CE0B22946013440
:10206000FFF78AFE062CF8D102B070BD00000140D7
:1020700000300140002F685900000540008C864761
:1020800000800540001BB70080D1F008006CDC0226
:1020900083DE1B4386B003B451FC0804CDE9020182
:1020A00051FC0904CDE9040151EC0A04CDE9060113
:1020B00003BCF047BDE800504EEC00C4BDE8005042
:1020C0004EEC01C4BDE800504EEC02C400BD00005F
:1020D00000B5FFF7DFFF02E010FE30F4F8D441EC6A
:1020E000100443EC112400EE010410EE010480EE14
:1020F000200451EC1004704700B5FFF7CBFF02E05D
:1021000010FE30F4F8D441EC100443EC112400EE3E
:10211000010410EE210480EE200451EC30047047DD
:1021200000B5FFF7B7FF02E010FE30F4F8D410B5A9
:1021300041EC100443EC112451EC040453EC05244D
:10214000A0FB024C5FF0000EE0FB03CEE1FB02CEF1
:102150004CEC20440024E1FB03E444EC30E480EE4A
:10216000200451EC500410BD00B5FFF793FF02E0CE
:1021700010FE30F4F8D441EC100443EC112451EC7F
:102180002104A0FB01126FEA820252FB100052FBF5
:1021900012F252FB1000A0EBD07C53EC04245CFB49
:1021A00013F153EC1524A1FB022001FB030053ECB7
:1021B0004424A2EB000050FB1CF24FEA111312EB77
:1021C000017043EBE27140EA515020EA915020F057
:1021D000070053EC7524A0FB023C53EC752400FB74
:1021E00003CC01FB02CC53EC0424ACEB824C40EA60
:1021F0005C70A0F1010041EC400480EE200451EC41
:102200007004704700B5FFF745FF02E010FE30F4A0
:10221000F8D440EC700400EE010410EE210480EECE
:10222000200451EC3004704700B5FFF733FF02E0A3
:1022300010FE30F4F8D440EC600400EE010410EE1F
:10224000210480EE200451EC3004704700B5FFF704
:1022500021FF02E010FE30F4F8D441EC800400EEDF
:10226000010410EE010480EE400410EE13047047E8
:1022700000B5FFF70FFF02E010FE30F4F8D441EC98
:10228000800400EE010410EE010480EE400410EE24
:102290003304704700B5FFF7FDFE02E010FE30F496
:1022A000F8D441EC100443EC112400EE010410EECC
:1022B0003004C0F30070704700B5FFF7EBFE02E09A
:1022C00010FE30F4F8D443EC102441EC110400EE7D
:1022D000010410EE30F48CBF01200020704700BFD5
:1022E00000B5FFF7D7FE02E010FE30F4F8D441EC61
:1022F000100443EC112400EE010410EE30F42CBF66
:1023000001200020704700BF00B5FFF7C3FE02E0C8
:1023100010FE30F4F8D441EC100443EC112400EE2C
:10232000010410EE30F48CBF01200020704700BF84
:102330009A4238BF88547047704700BF2DE9F04F6C
:1023400083B09946DDE90DAB0F9B884611469A078D
:10235000074616D1DA453AD20C460D46ABEB0A06D3
:102360000E4422464B46414620200134B847B44231
:10237000F7D12946BAF1000F08D1204603B0BDE8D5
:10238000F08F0C46BAF1000F10D00E4655460C9B4C
:102390002E449A440191721B4B46013D41461AF866
:1023A000010D3446B847002DF5D101990F9B9B07CD
:1023B000E3D5651AAB45E0D922464B46414620207D
:1023C0000135B8475D4504F10104F5D3D5E7BAF10D
:1023D000000FDAD10C46D0E72DE9F04F0F9FDDF862
:1023E00024E017F0020F0A9C9DF82C900E9DDDE969
:1023F0000C8629D1002D6FD1B44225D2202C07F0B4
:10240000010B00F0128104F1FF3C4FF0300AF4445C
:1024100001E0202C7AD00134A6420CF801AFF8D8A4
:10242000BBF1000F10D0AC420ED2202C74D004F1BE
:10243000FF3C4FF0300AF44401E0202C29D0013455
:10244000AC420CF801AFF8D117F0100F3AD017F4E6
:10245000806F28D11CBBB8F1100F00F0CA80B8F112
:10246000020F00F0D48030248EF800400124B9F12E
:10247000000F67D17E0740F1AA802B260EF804607A
:102480000134CDE90B57CDE909E4BDE8F04FFFF782
:1024900055BFFC0640F189807C0535D42024A64236
:1024A0006AD0AC4268D0B8F1100F00F08780B8F164
:1024B000020F5AD0202CE4D0264601344FF0300CC5
:1024C0000EF806C0202CD2D1CDE90B57CDE909E496
:1024D000BDE8F04FFFF732BF17F0010B3ED0B9F166
:1024E000000F47D117F00C0F44D1B4429BD2202CDF
:1024F00089D1202D10D8FC0657D57C0555D4202E27
:1025000000F0B980202D10D02024CCE7BBF1000FC3
:1025100000F0A580202DBCD9FC0646D57C0544D40E
:10252000202E00F0A880202D3FD12C461F26B8F188
:10253000100F7FD0B8F1020FC0D14FF0620C0EF82F
:1025400006C0B7E72D260EF804600134CDE90B571D
:10255000CDE909E4BDE8F04FFFF7F0BEB442BFF4A7
:1025600073AF202C7FF44FAFD6E7202C89D02646BE
:102570000134E2E7013DB8E7661ED8D1B8F1100F8B
:1025800064D0B8F1020F7FF46EAF62268EF800605F
:10259000302644468EF80160B9F1000F3FF46AAF6F
:1025A000D0E7B8F1100F7FF46CAF2024CDE90B57C2
:1025B000CDE909E4BDE8F04FFFF7C0BEBE060ED47A
:1025C000202CF2D078260EF80460013472E73E0722
:1025D0007FF557AF20260EF80460013451E7202C18
:1025E000E3D04FF0580C0EEB040686F800C001341F
:1025F00060E7BE0617D558248EF8004030248EF8C8
:1026000001400224B9F1000F3FF434AF9AE762248D
:102610008EF8004030248EF801400224B9F1000FFA
:102620003FF428AF8EE77824F2E7BBF1000F7FF488
:1026300062AF71E717F0200F0CBF4FF0780C4FF02E
:10264000580CA61E0EF806C0013C35E7BC06EAD5BC
:1026500058248EF8004030248EF80140DDE717F052
:10266000100F3FF40EAF17F4806F9AD1202E7FF435
:1026700018AF1F265BE734461F2658E700B970479E
:1026800001F050BA000000002DE9F04F9FB09DED21
:10269000287BDDE92AA558EC177B83461E460D9161
:1026A000109243463A46384641468DED087B2C9CB5
:1026B000FFF7F4FD002840F0D880384641464FF03F
:1026C000FF32754BFFF724FE002840F0CE803846DD
:1026D00041464FF0FF326FF48013FFF7F1FD002801
:1026E00040F0C380DDE908780022384641460023E7
:1026F000FFF7E6FD002840F0C081CDE90A78DDE96A
:102700000A2390461F4614F4806308BF4FF0060A60
:10271000139304F4006258EA0703119240F0C0805A
:10272000002A00F0A2819FED5A7B00278DED0E7BE1
:102730004FF00009BA45CCBFAAEB070A4FF0000AD8
:102740004F46C8BF0AF1FF3A44F480644D4594BF38
:102750004FF00008A5EB090814F00203119304D010
:10276000B9F1000F18BF4FF000083FB1DDE90A01D1
:10277000DDE90E23FFF7FCFCCDE90A01DDE90801E4
:1027800000220023FFF79CFD30B1DDE90A0102467B
:1027900001F10043CDE90A239DED0A7BCDE902A8B2
:1027A000DDF834A024F4006304938DED007B334600
:1027B00051465846109A00F097F98046B9F1000F3B
:1027C0004FD014F0200F024600F1010433460CBF35
:1027D000652045205146D84709F1FF3087EAE77C5C
:1027E0000DF1580900224B46DFF8B080ACEBE77CD6
:1027F0004FEAD77E01E0202A10D0E246A8FB0C71F8
:10280000C90801EB8107ACEB47073037BAF1090F74
:102810008C4602F1010203F8017BECD805230590F8
:10282000069300200A230D9FCDE90330CDE9012E48
:102830003346224639465846CDF80090FFF7CCFD86
:10284000119B80466BB1109BC41AA54209D9424620
:102850003346394620200134D847A54208F1010803
:10286000F5D840461FB0BDE8F08F9DED087B33469C
:102870005846109A0D998DED287BCDE92B54CDF853
:10288000A8A01FB0BDE8F04F00F02EB9AFF3008054
:102890000000000000000000FFFFEF7FCDCCCCCC9B
:1028A000C7F30A50A0F2FF30FFF7B0FC8AA3D3E9C8
:1028B0000023FFF739FC8AA3D3E90023FFF70CFCC0
:1028C000C7F31307CDE90E0147F07F5140460022C0
:1028D0007B4B41F44011FFF713FC6BA3D3E90023BA
:1028E000FFF722FC02460B46DDE90E01FFF7F4FB81
:1028F000FFF7B0FC0746FFF789FC65A3D3E9002387
:1029000080468946FFF710FC00226E4BFFF7E4FB80
:10291000FFF7A0FC03464946404612935EA3D3E965
:102920000023FFF701FC804612988946FFF76EFCF2
:102930005BA3D3E90023FFF7F7FB02460B464046B3
:102940004946FFF7DDFB02460B4680468946FFF706
:10295000EBFB42464B46CDE90E0140464946FFF7A8
:10296000BBFB0022CDE91401DDE90E01564BFFF758
:10297000FFFB0022554BFFF7AFFB02460B46DDE99C
:102980000E01FFF7F5FB0022514BFFF7A5FB0246B6
:102990000B46DDE90E01FFF7EBFB42464B46804656
:1029A000894600204FF08041FFF7AAFB02460B4604
:1029B00040464946FFF790FB02460B46DDE914010D
:1029C000FFF7D6FB0022434BFFF786FB129B00224A
:1029D00003F2FF3C4FEA0C53FFF7A6FB8046894603
:1029E000DDE90A0142464B46CDE90E89FFF768FC56
:1029F00068BB4346494607F16302C62A119A8CBF59
:102A00004FF005094FF00409002A3FF49FAE0B4335
:102A10003FF48EAEDDE90A0123A3D3E90023FFF7DB
:102A200063FC48B1DDE90A0121A3D3E90023FFF7E4
:102A300047FC00287FF47CAEBAF1000F3FF486AE6D
:102A4000139B002B3FF482AE0AF1FF3A7EE6002290
:102A50001E4B40464946FFF78BFB0A46014603469C
:102A6000CDE90E12013F1146C5E79FED137B1746D6
:102A70004FF004098DED0E7B68E608F100430A97DC
:102A80000B933CE6AFF3008061436F63A787D23FAF
:102A900071A379094F930A401655B5BBB16B02403B
:102AA000EF39FAFE422EE63F2D431CEBE2361A3F89
:102AB0000000000080842E410000000000000000A3
:102AC0000000F83F0000E03F00002C4000002440E0
:102AD000000018400000F03FFB799F501344D33FA3
:102AE000B3C8608B288AC63F2DE9F04F97B0DDE967
:102AF0002089CDE90401DDE9224BCDE906234046DA
:102B000042464B464946DDF890A0FFF7C7FB002838
:102B100040F0C581404649464FF0FF326FF48013C4
:102B2000FFF7CEFB002840F01D81404649464FF09C
:102B3000FF32C14BFFF7ECFB002840F0E380B8A365
:102B4000D3E9002340464946FFF7E2FB002840F066
:102B5000CB80B5A3D3E9002340464946FFF7B0FB3D
:102B6000002840F0C1804046494600220023FFF77C
:102B7000A7FB002840F0E0801AF480650D9000F07B
:102B8000E980092C40F296810EAB1A460C93302155
:102B90000023A4F109050133202B02F8011BA4EB4B
:102BA000030600F03A81AB42F5D19FED9D7B8DEDA0
:102BB000087B49464046FFF74DFB0446FFF726FBDE
:102BC00002460B4640464946FFF79AFADDE90823DC
:102BD000FFF7AAFA02460B46CDE90A23FFF74CFBA2
:102BE0000746FFF725FB02460B46DDE90A01FFF722
:102BF00087FA02460B46CDE90A2300228F4BFFF7E6
:102C000087FB002800F0DB8001373846FFF710FB18
:102C1000DDE90823FFF768FB08B100270134002E27
:102C200040F0B1802046FFF7F1FA02460B464046DD
:102C30004946FFF765FA0022804B06460F46FFF72C
:102C40003FFB40B93046394600227C4BFFF760FB22
:102C5000002800F015810C9B691E7948194410E08A
:102C600080FB0462C3EBA20303EB8302A4EB4204E8
:102C700004F1300201351C4601F8012F002B00F051
:102C8000AB80202D4FEAE473EAD10AF00303012B55
:102C90001CD1BBF1000F19D00D9B002B40F0F98027
:102CA0001AF00C0F40F0F580AB4540F2D380202D98
:102CB0000BD030220C996B1E0B4401355D4503F897
:102CC000012F00F08D80202DF7D12025DDE906238E
:102CD000DDE904010C9CCDE902BA01950094FFF7EF
:102CE0002DFB17B0BDE8F08FCDE92089DDE9062383
:102CF000DDE90401CDE923BA229417B0BDE8F04F15
:102D0000FFF7C2BC4F4DCDF88CA00AF0040ABAF10F
:102D1000000F4D4C18BF2C46DDE90623DDE9040108
:102D200020940CBF03240424CDF888B0219417B05C
:102D3000BDE8F04FFFF702BB4B46424600200021A2
:102D4000FFF7DEF901231AF48065804689460D936A
:102D50007FF417AF9FED367B0EAB06268DED087B1B
:102D60000C9326E70424DDE90623DDE90401374D51
:102D7000CDF88CA0CDF888B02095219417B0BDE88F
:102D8000F04FFFF7DBBA0C9B681EDFF8C4C0184495
:102D90000DE0ACFB0721C90801EB8102A7EB420261
:102DA0003032092F00F8012F27D90F461D46202D5C
:102DB00005F1010306F1FF36EBD120254BE7002298
:102DC000DDE90A011D4BFFF77BFA00287FF427AFEE
:102DD000002F5AD1013722E70AF00303012B75D0E7
:102DE000202D3FF473AF0D9BBBB32D2205F158038B
:102DF0006B4403F8202C013568E7202BDDD0AEB3FF
:102E00000C9A1E441544302201E0B3422ED0013307
:102E1000202B05F8012FF8D1CFE71D46C5E600BFEE
:102E20000000000065CDCD410000000065CDCDC1A2
:102E30000000000080842E41FFFFEF7F0000E03F94
:102E400067666666646000106C6000107460001055
:102E5000CDCCCCCC202D3FF439AF1AF0040F0DD1DE
:102E60001AF0080F3FF432AF2022BFE72E2103F102
:102E700058026A4402F8201C5D1CECE62B22B5E7E0
:102E8000E3077FF5E8AE0134E5E6FA077FF5C7AE64
:102E9000A0E70BF1FF3BAB453FF609AFA0E70324EA
:102EA000DDE90623DDE904010A4DCDF88CA0CDF85B
:102EB00088B061E7084B264603EBC40393ED007B23
:102EC0000EAB8DED087B00250C9372E6BBF1000F75
:102ED00086D0E1E670600010A06100102DE9F04F8F
:102EE0009A469BB0249C964D0B94964C0B1E18BF93
:102EF000834625609AF80000934C0A9308BFA346C6
:102F00000992002800F0BC824FF000090AE04A460E
:102F1000099B0A9909F10109D8479AF8000000288D
:102F200000F0CE8025280AF1010AF0D10023524694
:102F300012F8010BA0F1200110290AD8DFE801F0F6
:102F40004009093C0909090909090938093409092D
:102F50003000A0F13001092940F28C802A2800F0CD
:102F6000F58000210C912E2800F099800027A0F117
:102F7000680112292DD8DFE811F057012C0051010A
:102F80002C0045012C002C002C002C002C002C00C7
:102F90002C0027002C002C002C002C002C002700DB
:102FA000924643F00103C2E7924643F00203BEE7B4
:102FB000924643F00403BAE7924643F01003B6E7A3
:102FC000924643F00803B2E79AF8010043F4807395
:102FD00001326728924600F28280242840F2C6809F
:102FE000A0F12502422A00F2C180DFE812F05F0161
:102FF000BF00BF00BF00BF00BF00BF00BF00BF00D9
:10300000BF00BF00BF00BF00BF00BF00BF00BF00C8
:10301000BF00BF00BF00BF00BF00BF00BF00BF00B8
:10302000BF00BF00BF00BF00BF00BF00BF00260140
:1030300045012601BF00BF00BF00BF00BF00BF00A9
:10304000BF00BF00BF00BF00BF00BF00BF00BF0088
:10305000BF00BF00D301BF00BF00BF00BF00BF0063
:10306000BF00BF00BF00BF00D3016701D30126012D
:1030700045012601002100E0013201EB810100EB56
:10308000410110789246A0F13004092CA1F13001E1
:10309000F2D92E280C9102F101027FF467AF9AF861
:1030A00001001146A0F13006092E43F4806340F27E
:1030B00031812A2800F03E8192460027013256E7EE
:1030C0004C46099B994501D303F1FF394A4600203C
:1030D000099B0A99D84720461BB0BDE8F08FA0F1A4
:1030E0006902D2B20F2A41D8012649F24101964025
:1030F0000E4040F001810A2A3FD0072A36D10B9CAE
:1031000054F8042B002A00F0288143F021010DF12E
:10311000480E704603E0202E00F029811A4602F086
:103120000F052B46092D94BF303337330F2A00F893
:10313000013B06F101064FEA1213ECD817E100BF7C
:10314000DD2E0010781C0020392300100B9C9AF80B
:10315000010054F8045B9246002DBDBF694243F064
:1031600002030C910C950B940132FCE64A46099B34
:103170000A9909F10109D847CFE60B9951F8048B58
:1031800098F800201046002F40F0E18072B16FF0F7
:10319000010C0CF1010C4646C44401E0664503D025
:1031A00016F8014F002CF9D1A6EB080613F4806C39
:1031B00002D0BE4228BF3E4613F0020400F08781D1
:1031C000002A00F02B81BCF1000F00F041810B942C
:1031D0000D964A46DDE909540E464F4408E02B4659
:1031E0002146D84718F8010F09F1010910B14A46E4
:1031F0004F45F4D131460B9C0D9E002C40F00E81C2
:103200000B918AE69AF801006C287FF4DFAE9AF8F9
:10321000020043F440730AF10302DAE69AF801006F
:1032200043F400730132D4E69AF80100682800F0F4
:10323000208143F080030132CBE6672800F0E7806D
:10324000472800F00081452800F0FF800B9C049384
:103250000C9B0734CDE9027324F007031C46DDE91B
:103260000931F4E802674A465846CDE900670B94F5
:10327000FFF70AFA814650E646280B9C08BF43F048
:10328000200304930C9B0734CDE9027324F0070359
:103290001C46DDE90931F4E802674A465846CDE9A3
:1032A00000670B94FFF720FC814636E64A4625204E
:1032B000099B0A9909F10109D8472EE60B9A9C0748
:1032C00002F1040709F1010640F1E6801078099B3C
:1032D0004A460A99D8470C9B012B40F22C81DDE924
:1032E0000954994432462B46214620200136D847BE
:1032F0004E45F7D10B9710E66F2800F08B8040F217
:103300006581782800F008814FF00A0823F0100347
:10331000C44647E0002707EB870700EB4700A0F112
:10332000300711F8010FA0F13002092AF3D98A46BB
:103330004A1C1CE60B9C9AF8020054F8047B0AF124
:10334000020A0AF101020B9427EAE7770FE6002A46
:103350003FF42CAF07F1FF3C1BE723F0100113F4FF
:10336000806241F021013FF4D2AE0DF1480E0823F6
:103370001020059300234A46CDE9023006915846B5
:10338000DDE90931CDE900E60497FFF725F80B9454
:103390008146C2E5582879D0622840F051824FF02A
:1033A0000208C44613F480606DD123F00C0313F4BB
:1033B000007240F0C2800B9904310D9113F48071BA
:1033C00040F02E825E060B9A40F1AA801278002A05
:1033D00040F0DA8023F01003002800F0D580114679
:1033E0000DF1480E06930C9BCDF80CC0CDE904738B
:1033F000019100234A4602935846DDE90931CDF890
:1034000000E0FEF7E9FF0D9B81460B9385E543F451
:1034100000631BE74FF00808C446C3E70C9B4C460B
:10342000B3427FF6EDAE0F464B44A3EB0609DDE950
:10343000096522463346294620200134D8474C45A9
:10344000F7D13946DCE643F4006343F02003FDE6A0
:103450000F460B94DDE909544A462B462146D847CE
:1034600018F8010F09F101090028F5D139460B9C24
:10347000C3E69AF8020043F0C0030AF10302A8E58C
:10348000044681461DE623F00D0390E74FF0100837
:1034900043F02003C44685E70C9B012B45D9DDE9A9
:1034A00009544E4609F1FF38984432462B462146CE
:1034B00020200136D8474645F7D10C9B3246994427
:1034C0000B9B1878DDE90931D8470B9725E50C9B54
:1034D000B34240F2EE81CDE90D48DDE9095488465A
:1034E0004B449E1BCDF82CC04A462B46214620203B
:1034F00009F10109D847B145F6D14146DDF83880D8
:103500000C9BDDF82CC00D9C98F800205E1C10462A
:10351000002A7FF458AE73E64FF01008C44641E726
:103520001D064CBF1288126851E713464A461878A8
:10353000DDE90931D847B146DCE60B9C073424F0BD
:1035400007042246656852F8084B0B9254EA0502BC
:1035500040F02C8123F01003002800F02781002682
:103560000DF1480E06930C9B4A46CDE904730023E7
:10357000CDE900E6CDF80CC002935846DDE90931EB
:10358000FEF72AFF8146C8E413F0200F14BF412044
:1035900061200DF1480E7646A0F10A0803E02029CB
:1035A0003FF420AF2246B2FBFCF40CFB1425E8B23A
:1035B000092D00F130058ABF4044E8B2C0B262452F
:1035C00006F8010B01F10101E9D20BE723F010022B
:1035D00069280D9240F06F8113F4806204D04FF49B
:1035E000806223F011030D930D9B13F4007640D1FC
:1035F0000B9B03F104080D9B13F4807040F098803E
:10360000590640F1C6800B9B19780C46CB0F002958
:1036100000F0B98022460DF1480E74461646DFF8D8
:10362000A0C201E020280FD03546ACFB0621C90816
:1036300001EB8102A6EB42023032092D0E4600F169
:10364000010004F8012BEDD80D9ACDE90103069293
:103650000C9ACDE904720A234A4603935846DDE9E1
:103660000931CDF800E0FEF7B7FECDF82C80814699
:1036700053E40B9C073424F0070421460846636892
:1036800050F8081BDC0F0B9051EA030000F0C380D8
:103690000A46191E48DB13460DF1480EF446002673
:1036A000CDE90E94DFF8188201E0202E2DD05A18B3
:1036B00042F10002A8FB025929F0030505EB990528
:1036C000521B1C469B1A61F1000508464FF0CC3195
:1036D00001FB03F108FB0511A3FB08531944052363
:1036E00005F00109A9FB03399B180A2C03F13003EB
:1036F0004FEA550570F100000CF8013B06F1010698
:1037000045EAC1734FEA5101CFD2DDE90E940D9B1A
:103710004A4606930C9BCDE90164CDE904730A2364
:10372000CDF800E0039328E7524261EB4101B2E794
:103730000B9B1968CB0F002900F0AB8081EAE17286
:10374000A2EBE1720DF1480E7046DFF874C101E0A2
:10375000202E10D01546ACFB0241C90801EB8104B4
:10376000A2EB440404F13002092D00F8012B06F10C
:1037700001060A46ECD80D9ACDE9016306920C9A2F
:10378000CDE9047267E7002A3FF445AF0DF1480E1A
:103790005AE713F0800F0B9B00F08180B3F9001003
:1037A00081EAE174A4EBE174A4B22FE713F0200FD7
:1037B00014BF412261220DF1480E0A3ACDE90D975E
:1037C000CDF844B000267746F3469146CDE90F3C4C
:1037D00003E0202E17D004460D462946424600231A
:1037E000204602F021FBD2B2092A02F1300388BF41
:1037F00002EB09034445DBB275F1000507F8013B14
:1038000006F10106E5D2DE46DDE90D97DDE90F3C64
:10381000DDF844B0A6E6002A47D1134611463BE73F
:103820000B990968A1B923F0100388B10DF1480E76
:1038300006930C9BCDF80CC0CDE904730192D8E53A
:1038400013F480627FF4CBAE23F010030D93CBE62C
:1038500013F0200F14BF412061200DF1480E764671
:10386000A0F10A0802E0202AE2D02146B1FBFCF4D4
:103870000CFB1415E8B2092D00F130058ABF404455
:10388000E8B2C0B2614506F8010B02F10102EAD2CA
:10389000CEE7002A3FF456AF0DF1480E6BE71968EA
:1038A00081EAE174A4EBE174B0E600260DF1480E64
:1038B0002DE701362BE64FF00A081346C44671E5A2
:1038C000CDCCCCCC30B594468E4605461C4683B054
:1038D00029467246634600940248FFF7FFFA03B098
:1038E00030BD00BF3123001010B5094B84B01C68F7
:1038F0004CB1034600914FF0FF3203A90548A047A1
:10390000012004B010BD00F04FF9204604B010BDF6
:10391000781C00207D26001000BEFDE7704700BF28
:1039200008B5FFF7F9FF00BF38B5064C064DFEF7A6
:10393000A5FAAC4204D254F8043B9847AC42FAD3FF
:1039400038BD00BF785E0010805E00100368084636
:1039500011461847437D2DE9F04781460F4616462C
:10396000002B43D0002A3BDD037D00204D1E014685
:1039700015F8012FDFF884800A2A01F101040ED026
:10398000A6421CD02B782146A3F10D03B3FA83F392
:1039900015F8012F5B090A2A01F10104F0D1002B6F
:1039A000EED18142A1EB000138441BDC02214046EC
:1039B000D9F800309847A64208D02046E2E7864270
:1039C00004DD311AD9F8003038449847374417F8E5
:1039D000013CA3F10D03B3FA83F35B0989F81430BA
:1039E000BDE8F087D9F800309847DFE73846D9F8C6
:1039F00000301146BDE8F047184700BFF0610010E5
:103A00002DE9F04782B00D46924699460746FEF7EB
:103A100065F84FF0FF366FF000442F4A821841F1ED
:103A20000003964274EB03013CBF324623462B4809
:103A300002F0FEF96B1C804603D1384602F0A0F973
:103A40000546274B274E1C68274BB9F1000F18BFBE
:103A50001E46B4B1BAF1000F1AD1DFF8909001E020
:103A6000246974B12368002BFAD0D9F800300BB167
:103A70009C42F5D120462A463946B0472469002C9D
:103A8000F0D1B8F1000F1FD1284602B0BDE8F08791
:103A90004FF00A0ADFF8549002E02469002CF0D0BD
:103AA0002368002BF9D0D9F800300BB1A342F4D130
:103AB0002A4639462046B047012220460DF107012B
:103AC0008DF807A0B047E8E7044802F0A5F92846BA
:103AD00002B0BDE8F08700BF40420F007013002025
:103AE000541800204D390010553900105C18002082
:103AF0000A4A13684BB1834202D109E0984207D0C9
:103B000003F110021B69002BF8D101B1106070475E
:103B10000029FCD10369136001617047541800202B
:103B200000F048B9F0B583B006468DF80700FDF700
:103B3000D5FF4FF0FF356FF00044174A821841F16E
:103B40000003954274EB03013CBF23462A46134809
:103B500002F06EF9124B07461C689CB1114D01E052
:103B600024697CB12368002BFAD02B680BB19C42EE
:103B7000F6D1204601220DF10701FFF7EBFE246983
:103B8000002CEFD117B9304603B0F0BD034802F066
:103B900043F9304603B0F0BD40420F0070130020DF
:103BA000541800205C18002038B5044602F0E8F8EC
:103BB000012305461A4620462946FFF721FF084BF8
:103BC0001C682CB163682BB198472469002CF9D18B
:103BD000284638BD2469002CF4D1284638BD00BFE2
:103BE00054180020024A034B10601960704700BF50
:103BF000F4170020F817002038B5044600200D46C1
:103C000001F09CFAA8B3002001F0AEFA88B3FDF7EA
:103C100065FF4FF0FF3E6FF0004C174A821841F1EC
:103C2000000396457CEB03013CBF72466346134894
:103C300002F0FEF8E8B1002001F080FA58B9002146
:103C40004FF0FF3000F0B8FC6FF002040B4802F0B8
:103C5000E3F8204638BD002001F086FA0028EED0B7
:103C600021462A46002001F08BFA04460028EDD1B7
:103C7000EAE76FF00204ECE740420F00B01C0020BE
:103C800008B5FDF72BFF4FF0FF3E6FF0004C0F4AD9
:103C9000821841F1000396457CEB03013CBF72465C
:103CA00063460B4802F0C4F870B14FF0FF300021BA
:103CB00000F082FC002001F0A9FA0028F5D1BDE84F
:103CC0000840034802F0A8B808BD00BF40420F00FA
:103CD000B01C00202DE9F04107460E46FDF7FEFE20
:103CE0004FF0FF356FF000442F4A821841F1000376
:103CF000954274EB03013CBF2A4623462B4802F051
:103D000097F808B9BDE8F081002001F017FA002803
:103D100040D0002E39DD0025DFF8948013E02246E4
:103D2000002001F0B9FA002104464FF0FF3000F006
:103D300043FC002001F06AFAFDF7D0FEC8E900015B
:103D40002544AE4221DD002001F0C8FA741B8442F4
:103D5000A8BF04467919002CE1D121464FF0FF306D
:103D600000F02AFC204601F051FA204601F0E6F965
:103D700058B1204601F0B2FA0028E2D1FDF7AEFEBC
:103D8000D8E9002382428B41DBD20848BDE8F041EC
:103D900002F042B80020BDE8F0410021044BC3E925
:103DA0000001024802F038B840420F00B01C002069
:103DB000C01500204FF0504310B51C68FDF760FDA2
:103DC000FDF706FEA04201D0002010BD0021084BE7
:103DD00008461B7801F03EFC064803682BB1012120
:103DE0000548FFF785FE012010BDFDF70FFBF6E744
:103DF000B0630010B01C002038130020004870474A
:103E00006C620010004870471862001038B5184BFB
:103E100004461A780AB344B940F209424FF4417398
:103E2000144D6A8013482B8038BD052C1AD8124BCC
:103E3000104D53F8241028460023013903E0132BBA
:103E400020F8022F10D011F8012F0133DBB2002A25
:103E5000F5D15B0043F44073E4E71121184600F00C
:103E600025F8D8E7002038BD4FF44A73DAE700BFE1
:103E7000B81C00202C1800200062001000B545F28C
:103E800047308BB0FDF79EFF01220346092101A8B0
:103E90009847DDE90332044912BA1BBAC1E900238D
:103EA0000BB05DF804FB00BFA41C0020012901F148
:103EB000FF3300F0B3805D490A784FEA121C9F2A55
:103EC0008CBF0CF1370C0CF1300C012B80F800C0CA
:103ED00000F0A78002F00F02092A8CBF373230327F
:103EE000022B427000F09D804A784FEA121C9F2AF4
:103EF0008CBF0CF1370C0CF1300C032B80F802C096
:103F000000F08F8002F00F02092A8CBF3732303266
:103F1000042BC27000F085808A784FEA121C9F2A19
:103F20008CBF0CF1370C0CF1300C052B80F804C061
:103F300077D002F00F02092A8CBF37323032062BBD
:103F400042716ED0CA784FEA121C9F2A8CBF0CF1C6
:103F5000370C0CF1300C072B80F806C061D002F052
:103F60000F02092A8CBF37323032082BC27158D069
:103F70000A794FEA121C9F2A8CBF0CF1370C0CF106
:103F8000300C092B80F808C04BD002F00F02092A30
:103F90008CBF373230320A2B427242D04A794FEA14
:103FA000121C9F2A8CBF0CF1370C0CF1300C0B2B20
:103FB00080F80AC035D002F00F02092A8CBF3732D0
:103FC00030320C2BC2722CD08A794FEA121C9F2AF5
:103FD0008CBF0CF1370C0CF1300C0D2B80F80CC0A1
:103FE0001FD002F00F02092A8CBF373230320E2B5D
:103FF000427316D0CA7911099F2A8CBF37313031EC
:104000000F2B81730DD002F00F02092A94BF3032BA
:104010003732102BC27318BF103002D00023037048
:104020007047184400230370704700BFA41C002091
:10403000704700BF0022014B1A707047CD1C002052
:104040004B79FF2B0BD1887948B9CB79012B07D15C
:10405000082A05D9034B8A7809201A707047002076
:10406000704700BFCD1C002001207047012901D0FE
:104070000120704708B5104B91881B78994201D0F8
:10408000002008BD5378012B08D0022BF8D1002165
:1040900064220846FDF724FE012008BD518811F472
:1040A00080721ABFC1F3C012480A4FF0FF3001F00E
:1040B0000301FDF793FE00BFCD1C002000487047B0
:1040C00028630010012907D15378012B02D193886E
:1040D000072B03D000207047012070471146A6230C
:1040E000014A00F0FFBE00BF8062001003460122BB
:1040F00001481A70704700BF4C63001008B50B6888
:10410000B3F5966F00D008BD00224FF0FF30114686
:10411000FDF764FE70B500F02DF90C2340261B4C12
:10412000FF22A3670E201A49FCF7FAFF194B32460B
:104130000021184601F074FE03460021012580206D
:10414000154A58849A60843A5D701E831E875960B0
:10415000C2F88410C2F8801002F58072DA60DA6268
:10416000803A83F8211083F83B1059629A624FF02D
:10417000005601F049FE4FF480320849084B25648F
:104180002846E664C4F89010DA6470BD000011504F
:10419000A5030020701800208400105010D00100EA
:1041A0000020115001210E20FCF776BF00220248AA
:1041B000114600F0FFB800BF90180020044B1970A2
:1041C00021B14FF40032034BC3F89020704700BF79
:1041D000CA1C0020002011500B785B0602D14B78DE
:1041E000052B00D070474B88014ADBB21360704743
:1041F00000001150CB782DE9F04103F0030EBEF121
:10420000010FC3F3010059D0002791F802C0324CCE
:104210000CF07F035E00898806EBDC1204EB42128F
:104220004FEADC15D076C1F30A0185F00100507029
:1042300082F802C01183D77018B2DA006DBB27482C
:10424000043204EB831C02EB0008CCF80880175002
:104250006BB3234ADB001A44CCF80420214A3F31D7
:10426000136821F03F01BEF1020F08BF49001E484C
:1042700019442E4404EB461481421160E36028D8AF
:1042800083F0A04383F48013626843EA8E6343F0B3
:10429000004313600120BDE8F081DFF840C004EB6B
:1042A00083186244C8F828204CF830704BB90023BA
:1042B0000E4A04EB4514E2606360EBE70020BDE8C2
:1042C000F081DB0003F1A04303F58013C8F824302C
:1042D000C4E7FDF7CDFD00BF70180020800010502E
:1042E00004001050801C0020FF0F105000011050DF
:1042F00001F08ABD8C4608B5114607481A460CF0F5
:104300007F034FEADC1C0CEB430C00EB4C1000F07D
:1043100051F8012008BD00BF70180020CB0911F032
:104320007F0103D1064AC3F102009066054803EB02
:1043300041034FF40062002100EB431001F050BD37
:10434000002011507018002011F07F0300D1704739
:10435000002210B4C809064C00EB430004EB4013E4
:104360006FF4006118465DF8044BDA7001F038BD57
:10437000701800204FF0805209480A4908B50A4BCE
:1043800002600A609968C94311F08051FAD14FF474
:104390008052064801F044FD0922054B5A6708BDCA
:1043A0000020024000300240000002400000105097
:1043B0000000115000234FF0010C10B580F81AC016
:1043C0008282C3820161044601F022FD20B14FF4D4
:1043D0000032074BC3F89020204601F005FD10B1D4
:1043E0000123237710BD2046BDE8104001F008BD31
:1043F000002011502DE9F0414FF000081C4D0446FB
:1044000042462B781B4F1C4E0DE0336813EB4213D2
:1044100025D0DB682046984708F101082B785FFA21
:1044200088F2934206D39342A2EB0303EDD807EB45
:104430004313EEE7114C54220021204601F0F0FC1A
:104440004FF0FF33251D6360C5E90133EB6004F1D4
:1044500014002022BDE8F041FF2101F0E1BC4FF043
:10446000E023D3F8F03DDB0700D500BEBDE8F081C6
:10447000C91C00206C630010D0150020D816002045
:10448000704700BF704700BF002070470020704792
:10449000704700BF704700BF704700BF704700BF44
:1044A000024B5878003818BF01207047D8160020FA
:1044B000024B1878C0F38000704700BFD816002068
:1044C0002DE9F047DFF8E89099F80030FF2B02D093
:1044D0000120BDE8F0870D4600293DD0002154227F
:1044E0000646294801F09CFC0022284C284B204617
:1044F0001A70FCF78BFF274B27481C60274CFCF7F2
:1045000093FF204601F088FB254A264B1460264C79
:104510005BB32046FFF7EAFD244B227818604FF08A
:10452000000ADFF890805346204F0DE03A6812EB06
:10453000431311D05B687BB198470AF1010A2278D6
:104540005FFA8AF39A4212D39342EFD39B1A08EB95
:1045500043135B68002BEFD14FF0E023D3F8F03D1D
:10456000DB0700D500BE0020B3E72278D7E7294655
:10457000304689F80060FFF7CDFD0028ECD03046CA
:10458000FFF710FEA4E700BFD8160020D0160020C9
:10459000CB1C00202C170020641300205013002097
:1045A00030170020ED400010C91C0020D01500205D
:1045B0006C1300206C6300102DE9F04FDFF8B0920F
:1045C0008BB099F80030FF2B00F0ED80A24CA34D8A
:1045D000DFF898A2DFF89CB226687369EFF31082C7
:1045E00072B6D3E8CF0F01210028FAD1C3E8401FEB
:1045F0000028F6D1BFF35F8FB261304607A901F002
:1046000059F900237269C2E88F3FB36983F31088B8
:10461000002800F0C8809DF81D30013B072B00F2F8
:104620006B83DFE803F0A5AF939B8C350A04089BEE
:10463000002BD1D009989847CEE79DF8201001F0C3
:104640007F0605EB460000EBD11090F8343023F0E4
:10465000010380F8343090F8343023F0040380F8FC
:104660003430002E00F0A280027D9AF800309A4289
:1046700080F091807A4B1B6813EB421300F08C8022
:104680009E699DF82120099B9DF81C00B047A3E777
:104690009BF80030002B7FD09BF80030013BDBB251
:1046A0008BF800309BF8003003F0FF00002B93D113
:1046B0006A4F9DF81C803B7843F001033B7097F8EC
:1046C000343060F3000387F8343097F8343060F307
:1046D000820387F8343097F8353060F3000387F8A9
:1046E000353097F8353060F3820387F8353000F0C5
:1046F00059FC9DF8203003F06002602A66D0402A01
:1047000076D003F01F03012B00F0B680022B7BD084
:10471000002B5BD1202A00F0DB81002A56D19DF8C6
:104720002130092B52D8DFE813F0A2019401510087
:10473000B301510087015D0151005201E5002B7862
:10474000D9077FF549AFFFF7A9FE45E7EB78DA0710
:104750007FF542AF0898FFF795FE3DE72B78D80725
:104760007FF53AAF2878C0F3C000FFF795FE33E736
:104770009DF81C00FFF73EFE00F00AFC9DF820307B
:10478000AB7029E79DF81C00FFF734FE00F000FC39
:10479000FFF780FE20E711D04FF0E023D3F8F03D83
:1047A000DC0700D500BE0BB0BDE8F08F099B9DF87B
:1047B00021209DF81C0000F009FC0DE7294B5FE764
:1047C000FFF720FB0246002840F079814FF0E023FC
:1047D000D3F8F03DDE0700D500BE9DF81C00002197
:1047E000FFF79CFD80219DF81C00FFF797FDF3E685
:1047F0001D4800F0D7FB0121404608AAFFF762FCE4
:1048000000287FF4E9AEE8E79DF8241011F0700F5E
:10481000DCD101F07F0607EB4600144B00EBD11012
:104820001B78007D7600019698424FEAD1160096DB
:104830004FD340F05F810B4E002A00F05F8170691A
:1048400000F0B0FB01214046736908AA9847002890
:104850007FF4C2AEC1E700BF30170020D816002099
:10486000D01500206C630010C5400010C91C00204A
:104870006C130020CB1C00209DF824300F2BACD8EB
:10488000AA4A3B441B79127893422DD3A5D1A84E56
:10489000706900F087FB01214046736908AA9847B8
:1048A00000287FF499AE9DF8203013F0600694D173
:1048B0009DF821300A3B012B8FD800F073FB9DF847
:1048C00021300A2B00F0F181404608A900F0F0FAEF
:1048D00082E6984B1B6803EB4016002A00F00E811D
:1048E000002E3FF47AAFAAE7924A166816EB4316F9
:1048F000CED172E77B789DF822609E4200F04C8119
:104900007B78002B40F0BD817E70002E00F042814C
:10491000701EC0B2FFF776FA0346002800F05E81F1
:104920004278022A40F05A81C17903F10906C1F3A5
:1049300040121201C1F3801142EA41123146387827
:1049400020F0300002433A705A88CDF808809A1857
:104950000092009B8B4240F2A3814B780B2B00F01E
:10496000AE814FF0010C042B40F038810023009AF7
:104970001E46521A92B201926C4ACDF80CC01278BF
:104980001DE06C4A126812EB461800F02781019A6C
:1049900005930298D8F8103004919847059B082891
:1049A0000246049903F1010303D90198904280F073
:1049B000F8805E4ADEB21278B242C0F00F81B24295
:1049C000A6EB0202DDD85A4800EB4218DFE77B78FD
:1049D00040468DF81A300DF11A02012308A900F0A3
:1049E00081FAF9E5BDF82200030A013B020AC0B2D0
:1049F0000E2B3FF6F2AE01A151F823F00D4C001042
:104A0000AD4A0010494C0010DB470010DB47001096
:104A10002B4C0010AD4A0010DB470010DB470010A4
:104A2000DB470010DB470010DB470010DB470010BE
:104A3000DB470010FF4B001008A800F0B9FA404611
:104A40009DF82210FFF7B2FB3B7843F002033B7066
:104A5000C2E5BDF82230012B7FF4BFAE3B78404663
:104A600023F0080308A93B7000F022FAB4E54046A1
:104A70003B789A0802F00202C3F340131343ADF8E7
:104A80001A300DF11A02022308A900F02BFAA3E54F
:104A9000BDF82230012B7FF4A0AE3B78404643F0B6
:104AA000080308A93B7000F003FA95E5022A3FF4D9
:104AB00087AEFFF7EBFC024600283FF48EAE40467F
:104AC000538808A900F00EFA00287FF485AD84E62B
:104AD0009DF824300F2B3FF680AE144A3B441B79DF
:104AE000127893421DD2134A166816EB43167FF4D0
:104AF000A6AE72E6002A7FF470AE00269DF8212053
:104B000002F0FD03012B17D0002A7FF45FAE019B5A
:104B1000009A3B44134493F834304046C3F34003B7
:104B2000ADE77FF45AAE024E89E600BFC91C0020F3
:104B30006C630010D0150020BDF82230B3B9012AF3
:104B400099F8000000F08880FFF7E8FB019B009ACD
:104B50003B44134493F8342042F0020283F834209B
:104B600093F8342042F0010283F83420002E3FF401
:104B700033AD706900F016FA7369012108AA404646
:104B80009847002000F00EFA97F83530DF073FF520
:104B900023AD99E6FFF77EFC404608A900F088F9AE
:104BA0001AE5DDF80CC0BCF1010F00F09D80BCF1EE
:104BB000000F00F08A80002391F8028004E0067163
:104BC000D8B2844540F2818008EB030057FA80F0A8
:104BD00090F804E00133BEF1FF0FF0D04FF0E02376
:104BE000D3F8F03DDA0700D500BE4FF0E023D3F84C
:104BF000F03DDB0700D500BE00237B70EDE5FFF73D
:104C00005DFA024600287FF45AAFE6E5FFF7F6F8B2
:104C1000024600283FF4DAAD4046122308A900F00E
:104C200061F900287FF4D8ACD7E5FFF72DFC0246E8
:104C300000283FF4D2AD4046137808A900F052F99D
:104C400000287FF4C9ACC8E5BDF82410FFF7DEF8F2
:104C500002460028EFD1C0E50293FFF775FB019AE9
:104C6000009B3A441A4492F83410029B63F34101CA
:104C700082F8341092F8341063F3000182F8341093
:104C800074E700214046FFF799FA4046FFF730FBF2
:104C9000BB7840460093FFF7ADFB009BBB7033E64B
:104CA000DDF80880FFF7F4FB76E74046012308A90A
:104CB0000DF11A028DF81A6000F014F98CE40B78EB
:104CC00091F803C019444B784DE633460F480392E0
:104CD000019100F067FD0E4B01991B78039AB342D6
:104CE0001144BFF436AE79E7D8F81000094B98426A
:104CF00008BF4FF0020C5EE74FF0E023D3F8F03D21
:104D0000DB077FF569AC00BE66E400BFEC1600204F
:104D1000C91C0020DD5300102DE9F84FDDF8288074
:104D2000002A3FD00C461E4615464FF0000B1F4F81
:104D3000DFF87C9017E0204699F8021000F000FDA3
:104D4000F8B121465046FFF755FA08B3A3780BF1A6
:104D5000010BDA0916BF0B9A88F80030137023781C
:104D6000AB451C441ED06378052B11D1E17801F0CE
:104D70000301B1420CD1A37897F800A013F0700F93
:104D8000D9D04FF0E023D3F8F03DDA0700D500BECC
:104D90004FF0E023D3F8F03DDB0700D500BE002044
:104DA000BDE8F88F0120BDE8F88F00BF6C1300202C
:104DB000D816002038B50E4B1D788B7813F0700F85
:104DC00008D04FF0E023D3F8F03DDB0700D500BE5C
:104DD000002038BD074B0C460846997800F0B0FC1F
:104DE0000028EED021462846BDE83840FFF702BA39
:104DF0006C130020D81600200B46064A064811689E
:104E0000DA09343203F07F0302EB4303184400F065
:104E100051BC00BF2C170020D81600200B46064AB4
:104E200006481168DA09343203F07F0302EB4303CA
:104E3000184400F069BC00BF2C170020D8160020D1
:104E400010B5194C01F07F0E04EB4E0404EBD114A5
:104E500094F834C015481CF0010F04F130040078B8
:104E600008D04FF0E023D3F8F03DDA0700D500BEBC
:104E7000002010BD94F804C04CF0010C84F804C06C
:104E8000FFF738FA0028F4D14FF0E021227960F3DF
:104E900000022271227960F382022271D1F8F03D82
:104EA000DB07E5D5E3E700BFD81600206C13002030
:104EB00030B50B4C8C46A646054608684968002369
:104EC000AEE803009CF800102846C943C4E9023349
:104ED000BDE830401A4601F08001FFF7B1BF00BFC6
:104EE000981600202DE9F041274F4FF00008BE46EC
:104EF0008C46064608684968BA60AEE80300A7F821
:104F00000E801546BCF80620934228BF1346BB818D
:104F10009AB11C462BB3DDB197F90030402C28BF65
:104F20004024002B28DB414623463046174AFFF732
:104F300087FF68B10120BDE8F0819CF8001013469E
:104F4000C943304601F08001FFF77AFF0028F1D114
:104F50004FF0E023D3F8F03DDB0700D500BE002082
:104F6000E9E71A46397801F0800123463046FFF719
:104F700067FF0028DED1EBE722462946034800F010
:104F800037FF8021014AF0E79816002058160020CC
:104F90000022034BC3E90022C3E902221A617047D1
:104FA00098160020014B1861704700BF981600202A
:104FB00030B40246044C0025234600685168C4E919
:104FC000025530BC03C370479816002070B53C4CA6
:104FD000C90922780646B1EBD21F1D4682B017D010
:104FE00053B14FF0E023D3F8F03DDB0702D40020AB
:104FF00002B070BD00BEFAE72146FFF7EDF8236965
:105000001BB12246032130469847012002B070BDF3
:1050100094F90030A068002B05DB0028E7D02A4671
:10502000284900F0E5FEE089A168E388284480B2C1
:1050300029448342E081A16016D03F2D14D9A28972
:1050400094F90040131A9BB2402B28BF4023002C38
:1050500026DB90424FF0000130D01A4A3046FFF76D
:10506000EFFE0028D1D1BCE7236923B102213046ED
:10507000134A984758B121780023C94330461A464D
:1050800001F08001FFF7DCFE0028BED1A9E7014650
:105090003046FFF743F980213046FFF73FF9B4E788
:1050A000904208D01A460748019300F0A1FE8021E3
:1050B000044A019BD2E780210022CFE70A46CDE7D0
:1050C00098160020581600202DE9F0410446FFF7FD
:1050D000E7F908B9BDE8F081FFF7EAF907460028CB
:1050E000F8D1C822134B02FB0436F1780029F1D025
:1050F00006F11005284600F0CBFB3F28EAD93846D8
:10510000F178FFF779FE0028E4D0284600F0C0FBD4
:105110003F2809D9084A3846F17802EBC4124023E7
:10512000BDE8F041FFF78CBE3846F178BDE8F041AC
:10513000FFF774BE78130020D415002010B5044684
:10514000FFF7AEF908B9002010BDFFF7B1F900284C
:10515000F9D1C822034B02FB0433187900F0010097
:1051600010BD00BF78130020C82108B5102301FB33
:105170000030024A104400F071FB08BD7813002093
:105180002DE9F8434FF6FF734FF0C80810249A42F8
:1051900028BF1A4618FB00441A4F06463C442046D6
:1051A00092B200F0D1FB0546FFF77AF910B9284614
:1051B000BDE8F883FFF77CF981460028F7D108FBAA
:1051C0000677FB78002BF2D0204600F061FB3F28E9
:1051D000EDD94846F978FFF70FFE0028E7D02046C2
:1051E00000F056FB3F2808D9074A48464023F97883
:1051F00002EBC612FFF724FED9E74846F978FFF71D
:105200000DFED4E778130020D41500202DE9F041DD
:105210000546FFF745F910B90020BDE8F081FFF71A
:1052200047F906460028F7D14FF0C808242418FB98
:105230000544174F3C44204600F010FB0028EBD0FB
:1052400008FB05773046B978FFF7D6FD0028E3D094
:105250004022104B204602EBC5141C44214600F0AE
:1052600073FB054680B1034622463046B978FFF706
:10527000E7FD38B94FF0E023D3F8F03DDB07CBD59D
:1052800000BEC9E72846C8E7B978FFF7C7FDC3E7FE
:1052900078130020D415002038B54FF6FF734FF077
:1052A000240CC8249A4228BF1A4614FB00C40A4B97
:1052B00092B21C440546204600F002FC03462046FC
:1052C0001C4600F0CBFA3F2801D8204638BD2846BE
:1052D000FFF79CFF204638BD78130020C82108B591
:1052E000242301FB0030024A104400F0D1FA08BD2B
:1052F00078130020F0B5194C83B0C8220021204655
:1053000000F08EFD0025FF234FF4E1310822144800
:1053100004F1B8070570009504F110006371A160F5
:10532000A27304F138010123402200F067FA01233F
:10533000402204F17801009304F1240000F05EFAA9
:1053400004F1C0063846FCF761F83046FCF75EF819
:10535000C4E90757C4E90C6503B0F0BD7813002019
:1053600054160020094B196B49B11A6A12B1002278
:10537000C3E907220022C3E90C22012070471A6A00
:10538000002AFAD00120C3E90711704778130020E2
:10539000002210B50E4C0F48237802600271DA0724
:1053A00007D59B070BD5BDE8104001210A4800F046
:1053B0004FBC103000F030FC23789B07F3D4064834
:1053C00000F02AFCBDE810400121034800F040BC79
:1053D00054160020781300209C130020F0B54B7960
:1053E00083B0022B03D00025284603B0F0BD8B7993
:1053F000022BF8D1264FBB783BB14FF0E023D3F816
:10540000F03DDB07EFD500BEEDE78B7806463B703D
:105410000B780925CC18617824290BD1082A02D8E9
:105420000FE0AA420DD323781C4461782B44242931
:105430009DB2F6D005290AD0042902D163790A2B3E
:1054400013D00020FFF740FE284603B0F0BD2146F0
:105450003046FFF7AFFC0028CFD0A3787B702378CD
:105460001C442B4461789DB2E6E70A4B27780193F0
:1054700001330093022330461A46E119FFF74CFC32
:105480000028BAD00E3517FA85F5ADB2D9E700BFBE
:10549000781300207A130020137803F06003202B88
:1054A00008D170B5264C938894F800C09C4503D071
:1054B000002070BD002070475378203B032BF7D8A5
:1054C000DFE803F027230D0201292ED003291ED186
:1054D0001C4BE3B100205188AFF3008017E0012995
:1054E00023D0032913D15588174805F0010686F00B
:1054F0000101257100F0ACFB144B43B13146002093
:10550000C5F34002AFF3008001E0012911D0012072
:1055100070BD01290DD00329F9D10D4B002BF6D018
:1055200000200C49FEF7EAFDF1E71146FFF7C0FC49
:10553000EDE711460723074AFFF7D4FCE7E700BF72
:1055400078130020000000009C13002000000000E1
:10555000FD400010801300202DE9F047364F0C4627
:10556000FA7806468A421D4697F802C03CD08C4520
:1055700013D04FF0E023D3F8F03DDB0700D500BE99
:105580000020BDE8F0872D4B23B12D4800F076F9BF
:1055900000284ED00020FFF797FDBB78A34202D031
:1055A0000120BDE8F087274B13B10020AFF3008046
:1055B0000020FFF72BFE0028F2D1234800F04EF91F
:1055C0000028EDD1002DEBD015F03F05E8D1304695
:1055D000B978FFF711FC0028E2D02B462A46304666
:1055E000B978FFF72DFCDBE7DFF864809AB241461B
:1055F00007F1100000F064FA144B002BC3D07B7944
:10560000FF2BC0D0002DBED007F1100908EB050A12
:1056100002E0C245B7D07B7918F8012B9A42F8D145
:10562000484600F02BF90028F3D17979AFF30080D8
:10563000EFE7AFF30080ADE7781300200000000033
:1056400088130020000000009C13002000000000D0
:10565000D415002010B582B0B9B101280CD80B7850
:1056600053B1134C012B235402D0012002B010BDC2
:10567000FEF726FF0028F8D14FF0E023D3F8F03DE5
:10568000DB0700D500BE0020F0E70124084601A991
:10569000ADF80440FEF714FF38B94FF0E023D3F81B
:1056A000F03DDA07E2D500BEE0E7014B1C70DDE714
:1056B000CC160020F8B5037813F001041AD1037852
:1056C00005465A07C3F3800701D52046F8BD0E46AC
:1056D0004FF0FF31304600F08FFB2B7813F00104C0
:1056E0000BD12B785B0709D42B78012443F00403FA
:1056F0002B7003E000242046F8BD3C46304600F005
:105700008BFB2046F8BD00BF70B50C4605464FF038
:10571000FF31204600F070FB2B78C3F380065B0757
:1057200008D52B7813F0010311BF00262A7863F304
:1057300082022A70204600F06FFB304670BD00BF29
:10574000C378828803F003000228C2F30A021FD044
:10575000032803D001280AD000207047022914BF73
:1057600040234FF48063934209D3012070470229FC
:1057700040F2FF3308BF4FF480639342F6D24FF0FC
:10578000E023D3F8F03DDB07E6D500BE00207047EC
:10579000022902D0402AE8D9F1E7B2F5007FE4D02F
:1057A000EDE700BF0A44914226D291F801C0BCF156
:1057B000050F05D091F800C061448A42F5D87047C2
:1057C00000B591F802C00CF07F0E00EB4E0E4FEAD0
:1057D000DC1C0EF80C3091F800C061448A4209D9F3
:1057E00091F801C0BCF1050FEBD091F800C0614405
:1057F0008A42F5D85DF804FB704700BF2DE9F041FF
:10580000B2F5004F9DF8188024D80446C0681746AA
:105810000E461D4618B14FF0FF3100F0EDFA206939
:1058200018B14FF0FF3100F0E7FA0022C5F30E0384
:10583000E06843EAC83362812660A780E380228162
:1058400008B100F0E9FA206908B100F0E5FA01209A
:10585000BDE8F0810020BDE8F08100BF03894289E6
:105860009BB292B28088934236BFC2EB40029B1A31
:105870009B189BB2984228BF1846704702894389FB
:1058800090B29BB2C01AB0FA80F04009704700BFD6
:10589000038942899BB2808892B2934236BFC2EBA1
:1058A00040029B1A9B189BB2984286BFC01A80B2D6
:1058B0000020704738B5044600690D4618B14FF016
:1058C000FF3100F099FA2189638989B29BB2A288DD
:1058D000994236BFC3EB4200C81A401880B250B399
:1058E000824209D291422CBF891A89188BB29A42FE
:1058F000638103D89B1A9BB29A42FBD9E288216844
:10590000C2F30E0202FB0311284600F071FA61890E
:10591000012589B24B1C9BB29942A2880ED9002363
:1059200002FA05F15B1A9BB22069638108B100F0AD
:1059300073FA284638BD054663899BB2B3EB420F24
:105940004FEA4201F0DBEDE72DE9F047064600693A
:105950008846914618B14FF0FF3100F04DFA338977
:1059600074899BB2A4B2B588A34236BFC4EB450785
:105970001F1BFF18BFB2002F4AD0BD4240D3B9450C
:1059800028BFB946A5421FFA89F703D8641BA4B201
:10599000A542FBD9B6F806A02B1B31689BB2CAF30F
:1059A0000E029F42924602FB041123D913FB02F31D
:1059B0001FFA83F94A4640467D1B00F019FA621926
:1059C00012FB0AF2316808EB090092B200F010FAFB
:1059D0007289B58892B2D3199BB29A421AD96A00D9
:1059E0009B1A9BB23069738108B100F015FA3846F2
:1059F000BDE8F087404607FB02F200F0F9F9E7E75F
:105A0000AB422CBF5B1B5B199CB22F467481B6E77F
:105A100073899BB2B3EB450F4FEA4502E2DBDFE748
:105A2000F8B50446C0680E4618B14FF0FF3100F0DB
:105A3000E3F92589238961899BB289B2A2888B42C7
:105A400036BFC1EB42015B1A5B189BB29A42ADB202
:105A500008D8E779FF0905D1E06808B100F0DCF962
:105A60003846F8BD954219D32B469B1A9BB29342F8
:105A7000FBD2E2882068C2F30E0202FB030031462B
:105A800000F0B6F96B1C9BB29D42A28812D900238C
:105A900051005B1A9BB201272381DDE7E288206871
:105AA000C2F30E0205FB0200314600F0A1F90135F8
:105AB000A288ABB2B3EB420F4FEA4201EBDBE8E75F
:105AC0002DE9F04F164683B0002A4CD00546C06839
:105AD000884618B14FF0FF3100F08EF9EA792F892E
